{
  "contractName": "teacher",
  "abi": [
    {
      "inputs": [],
      "payable": false,
      "stateMutability": "nonpayable",
      "type": "constructor"
    },
    {
      "constant": false,
      "inputs": [
        {
          "internalType": "uint256",
          "name": "_studid",
          "type": "uint256"
        },
        {
          "internalType": "string",
          "name": "_fname",
          "type": "string"
        },
        {
          "internalType": "string",
          "name": "_lname",
          "type": "string"
        }
      ],
      "name": "addstudent",
      "outputs": [],
      "payable": true,
      "stateMutability": "payable",
      "type": "function"
    },
    {
      "constant": false,
      "inputs": [
        {
          "internalType": "string",
          "name": "_sub",
          "type": "string"
        },
        {
          "internalType": "string",
          "name": "_time",
          "type": "string"
        },
        {
          "internalType": "string",
          "name": "_date",
          "type": "string"
        }
      ],
      "name": "AddSubTime",
      "outputs": [],
      "payable": true,
      "stateMutability": "payable",
      "type": "function"
    },
    {
      "constant": true,
      "inputs": [
        {
          "internalType": "uint256",
          "name": "_studid",
          "type": "uint256"
        }
      ],
      "name": "getOneStudent",
      "outputs": [
        {
          "internalType": "string",
          "name": "",
          "type": "string"
        },
        {
          "internalType": "string",
          "name": "",
          "type": "string"
        },
        {
          "internalType": "uint256",
          "name": "",
          "type": "uint256"
        }
      ],
      "payable": false,
      "stateMutability": "view",
      "type": "function"
    },
    {
      "constant": false,
      "inputs": [
        {
          "internalType": "uint256",
          "name": "_studid",
          "type": "uint256"
        }
      ],
      "name": "incrementAttendance",
      "outputs": [],
      "payable": true,
      "stateMutability": "payable",
      "type": "function"
    },
    {
      "constant": true,
      "inputs": [],
      "name": "getAllStudent",
      "outputs": [
        {
          "internalType": "uint256[]",
          "name": "",
          "type": "uint256[]"
        }
      ],
      "payable": false,
      "stateMutability": "view",
      "type": "function"
    },
    {
      "constant": true,
      "inputs": [],
      "name": "countStudent",
      "outputs": [
        {
          "internalType": "uint256",
          "name": "",
          "type": "uint256"
        }
      ],
      "payable": false,
      "stateMutability": "view",
      "type": "function"
    },
    {
      "constant": true,
      "inputs": [],
      "name": "GetSubTime",
      "outputs": [
        {
          "internalType": "string",
          "name": "",
          "type": "string"
        },
        {
          "internalType": "string",
          "name": "",
          "type": "string"
        },
        {
          "internalType": "string",
          "name": "",
          "type": "string"
        }
      ],
      "payable": false,
      "stateMutability": "view",
      "type": "function"
    },
    {
      "constant": true,
      "inputs": [],
      "name": "teachername",
      "outputs": [
        {
          "internalType": "address",
          "name": "",
          "type": "address"
        }
      ],
      "payable": false,
      "stateMutability": "view",
      "type": "function"
    }
  ],
  "bytecode": "0x608060405234801561001057600080fd5b50336000806101000a81548173ffffffffffffffffffffffffffffffffffffffff021916908373ffffffffffffffffffffffffffffffffffffffff160217905550610e43806100606000396000f3fe60806040526004361061007b5760003560e01c8063c64d51a01161004e578063c64d51a014610131578063da87a4cb1461015c578063f51e9b5614610178578063f74342da146101a55761007b565b806303627e7014610080578063133d0460146100ab57806354887daa146100d6578063874ff35e14610115575b600080fd5b34801561008c57600080fd5b506100956101c1565b6040516100a29190610c91565b60405180910390f35b3480156100b757600080fd5b506100c06101ce565b6040516100cd9190610bde565b60405180910390f35b3480156100e257600080fd5b506100fd60048036036100f89190810190610a3f565b610226565b60405161010c93929190610c4c565b60405180910390f35b61012f600480360361012a9190810190610a68565b6103f4565b005b34801561013d57600080fd5b50610146610522565b6040516101539190610bc3565b60405180910390f35b610176600480360361017191908101906109a8565b61054b565b005b34801561018457600080fd5b5061018d6105ee565b60405161019c93929190610c00565b60405180910390f35b6101bf60048036036101ba9190810190610a3f565b6107d8565b005b6000600580549050905090565b6060600580548060200260200160405190810160405280929190818152602001828054801561021c57602002820191906000526020600020905b815481526020019060010190808311610208575b5050505050905090565b60608060008084141561023857600080fd5b600115156004600086815260200190815260200160002060040160009054906101000a900460ff1615151461026c57600080fd5b60046000858152602001908152602001600020600001600460008681526020019081526020016000206001016004600087815260200190815260200160002060030154828054600181600116156101000203166002900480601f0160208091040260200160405190810160405280929190818152602001828054600181600116156101000203166002900480156103445780601f1061031957610100808354040283529160200191610344565b820191906000526020600020905b81548152906001019060200180831161032757829003601f168201915b50505050509250818054600181600116156101000203166002900480601f0160208091040260200160405190810160405280929190818152602001828054600181600116156101000203166002900480156103e05780601f106103b5576101008083540402835291602001916103e0565b820191906000526020600020905b8154815290600101906020018083116103c357829003601f168201915b505050505091509250925092509193909250565b6000809054906101000a900473ffffffffffffffffffffffffffffffffffffffff1673ffffffffffffffffffffffffffffffffffffffff163373ffffffffffffffffffffffffffffffffffffffff161461044d57600080fd5b60006004600085815260200190815260200160002090508060040160009054906101000a900460ff161561048057600080fd5b600084141561048e57600080fd5b828160000190805190602001906104a692919061089a565b50818160010190805190602001906104bf92919061089a565b508381600201819055506000816003018190555060018160040160006101000a81548160ff021916908315150217905550600584908060018154018082558091505090600182039060005260206000200160009091929091909150555050505050565b60008060009054906101000a900473ffffffffffffffffffffffffffffffffffffffff16905090565b6000809054906101000a900473ffffffffffffffffffffffffffffffffffffffff1673ffffffffffffffffffffffffffffffffffffffff163373ffffffffffffffffffffffffffffffffffffffff16146105a457600080fd5b82600190805190602001906105ba92919061089a565b5080600290805190602001906105d192919061089a565b5081600390805190602001906105e892919061089a565b50505050565b6060806060600160026003828054600181600116156101000203166002900480601f01602080910402602001604051908101604052809291908181526020018280546001816001161561010002031660029004801561068e5780601f106106635761010080835404028352916020019161068e565b820191906000526020600020905b81548152906001019060200180831161067157829003601f168201915b50505050509250818054600181600116156101000203166002900480601f01602080910402602001604051908101604052809291908181526020018280546001816001161561010002031660029004801561072a5780601f106106ff5761010080835404028352916020019161072a565b820191906000526020600020905b81548152906001019060200180831161070d57829003601f168201915b50505050509150808054600181600116156101000203166002900480601f0160208091040260200160405190810160405280929190818152602001828054600181600116156101000203166002900480156107c65780601f1061079b576101008083540402835291602001916107c6565b820191906000526020600020905b8154815290600101906020018083116107a957829003601f168201915b50505050509050925092509250909192565b6000809054906101000a900473ffffffffffffffffffffffffffffffffffffffff1673ffffffffffffffffffffffffffffffffffffffff163373ffffffffffffffffffffffffffffffffffffffff161461083157600080fd5b60006004600083815260200190815260200160002090508060040160009054906101000a900460ff1661086357600080fd5b600082141561087157600080fd5b600160046000848152602001908152602001600020600301600082825401925050819055505050565b828054600181600116156101000203166002900490600052602060002090601f016020900481019282601f106108db57805160ff1916838001178555610909565b82800160010185558215610909579182015b828111156109085782518255916020019190600101906108ed565b5b509050610916919061091a565b5090565b61093c91905b80821115610938576000816000905550600101610920565b5090565b90565b600082601f83011261095057600080fd5b813561096361095e82610cd9565b610cac565b9150808252602083016020830185838301111561097f57600080fd5b61098a838284610d96565b50505092915050565b6000813590506109a281610de9565b92915050565b6000806000606084860312156109bd57600080fd5b600084013567ffffffffffffffff8111156109d757600080fd5b6109e38682870161093f565b935050602084013567ffffffffffffffff811115610a0057600080fd5b610a0c8682870161093f565b925050604084013567ffffffffffffffff811115610a2957600080fd5b610a358682870161093f565b9150509250925092565b600060208284031215610a5157600080fd5b6000610a5f84828501610993565b91505092915050565b600080600060608486031215610a7d57600080fd5b6000610a8b86828701610993565b935050602084013567ffffffffffffffff811115610aa857600080fd5b610ab48682870161093f565b925050604084013567ffffffffffffffff811115610ad157600080fd5b610add8682870161093f565b9150509250925092565b6000610af38383610ba5565b60208301905092915050565b610b0881610d5a565b82525050565b6000610b1982610d15565b610b238185610d38565b9350610b2e83610d05565b8060005b83811015610b5f578151610b468882610ae7565b9750610b5183610d2b565b925050600181019050610b32565b5085935050505092915050565b6000610b7782610d20565b610b818185610d49565b9350610b91818560208601610da5565b610b9a81610dd8565b840191505092915050565b610bae81610d8c565b82525050565b610bbd81610d8c565b82525050565b6000602082019050610bd86000830184610aff565b92915050565b60006020820190508181036000830152610bf88184610b0e565b905092915050565b60006060820190508181036000830152610c1a8186610b6c565b90508181036020830152610c2e8185610b6c565b90508181036040830152610c428184610b6c565b9050949350505050565b60006060820190508181036000830152610c668186610b6c565b90508181036020830152610c7a8185610b6c565b9050610c896040830184610bb4565b949350505050565b6000602082019050610ca66000830184610bb4565b92915050565b6000604051905081810181811067ffffffffffffffff82111715610ccf57600080fd5b8060405250919050565b600067ffffffffffffffff821115610cf057600080fd5b601f19601f8301169050602081019050919050565b6000819050602082019050919050565b600081519050919050565b600081519050919050565b6000602082019050919050565b600082825260208201905092915050565b600082825260208201905092915050565b6000610d6582610d6c565b9050919050565b600073ffffffffffffffffffffffffffffffffffffffff82169050919050565b6000819050919050565b82818337600083830152505050565b60005b83811015610dc3578082015181840152602081019050610da8565b83811115610dd2576000848401525b50505050565b6000601f19601f8301169050919050565b610df281610d8c565b8114610dfd57600080fd5b5056fea365627a7a72315820d2d8e0805d6c9f3be465e383a9a4408d98f28e61ba5ee12ca1f2f32382097cfd6c6578706572696d656e74616cf564736f6c63430005100040",
  "source": "// SPDX-License-Identifier: MIT\r\n\r\npragma solidity ^0.5.16;\r\npragma experimental ABIEncoderV2;\r\n\r\ncontract teacher{\r\n\taddress owner;\r\n\r\n\tconstructor () public {\r\n        owner = msg.sender;\r\n\t}\r\n\r\n\tmodifier onlyOwner{\r\n\t  require(msg.sender == owner);\r\n\t  _;\r\n\t}\r\n\r\n\tstruct student{\r\n\t  string fname;\r\n\t  string lname;\r\n\t  uint ID;\r\n\t  uint attendanceCount;\r\n\t  bool set;\r\n\t}\r\n\t\r\n\tstring Subject;\r\n\tstring Date;\r\n\tstring Time;\r\n\r\n\tmapping (uint=> student) studentlist;\r\n\r\n\tuint [] private totalstudents;\r\n\r\n\tfunction addstudent(uint _studid, string memory _fname, string memory _lname ) onlyOwner public payable{\r\n\t   student storage stu = studentlist[_studid];\r\n\t   require(!stu.set);\r\n\t  \r\n\t   \r\n\t   require(_studid!=0);\r\n\t   \r\n\t   stu.fname = _fname;\r\n\t   stu.lname = _lname;\r\n\t   stu.ID = _studid;\r\n\t   stu.attendanceCount = 0;\r\n\t   stu.set= true;\r\n\t   totalstudents.push(_studid);\r\n\t   } \r\n\t   \r\n\t function AddSubTime(string memory _sub, string memory _time, string memory _date) onlyOwner public payable{\r\n\t     Subject=_sub;\r\n\t     Date=_date;\r\n\t     Time=_time;\r\n\t     \r\n\t     \r\n\t }\r\n\t\r\n\tfunction getOneStudent(uint _studid) public view returns(string memory, string memory, uint){\r\n\t    require(_studid!=0);\r\n\t    require(studentlist[_studid].set==true);\r\n\t   return (studentlist[_studid].fname,\r\n\t           studentlist[_studid].lname,\r\n\t           studentlist[_studid].attendanceCount);\r\n    }\r\n\r\n    function incrementAttendance(uint _studid) public onlyOwner payable{\r\n       student storage stu = studentlist[_studid];\r\n       require(stu.set);\r\n       require(_studid!=0);\r\n       studentlist[_studid].attendanceCount +=1;\r\n    }\r\n\r\n    function getAllStudent() public view returns(uint[] memory){\r\n       return totalstudents;\r\n    }\r\n\r\n    function countStudent() public view returns(uint){\r\n      return totalstudents.length;\r\n    }\r\n    \r\n    function GetSubTime() public view returns(string memory, string memory, string memory){\r\n        return(Subject,Date,Time);\r\n    }\r\n\r\n    function teachername() public view returns(address){\r\n    return owner;\r\n    }\r\n    \r\n}",
  "sourcePath": "C:/Users/Rachana Parkar/Desktop/AttendanceDapp/eth/contracts/attendance.sol",
  "compiler": {
    "name": "solc",
    "version": "0.5.16+commit.9c3226ce.Emscripten.clang"
  },
  "schemaVersion": "3.3.1",
  "updatedAt": "2021-05-30T15:18:46.943Z",
  "networkType": "ethereum",
  "devdoc": {
    "methods": {}
  },
  "userdoc": {
    "methods": {}
  }
}